{
  "_format": "hh-sol-artifact-1",
  "contractName": "SimpleVendorRegistry",
  "sourceName": "contracts/SimpleVendorRegistry.sol",
  "abi": [
    {
      "inputs": [],
      "stateMutability": "nonpayable",
      "type": "constructor"
    },
    {
      "anonymous": false,
      "inputs": [
        {
          "indexed": true,
          "internalType": "address",
          "name": "vendor",
          "type": "address"
        },
        {
          "indexed": false,
          "internalType": "uint256",
          "name": "newScore",
          "type": "uint256"
        }
      ],
      "name": "ReputationUpdated",
      "type": "event"
    },
    {
      "anonymous": false,
      "inputs": [
        {
          "indexed": true,
          "internalType": "address",
          "name": "vendor",
          "type": "address"
        },
        {
          "indexed": true,
          "internalType": "uint256",
          "name": "vendorId",
          "type": "uint256"
        }
      ],
      "name": "VendorRegistered",
      "type": "event"
    },
    {
      "anonymous": false,
      "inputs": [
        {
          "indexed": true,
          "internalType": "address",
          "name": "vendor",
          "type": "address"
        },
        {
          "indexed": false,
          "internalType": "bool",
          "name": "verified",
          "type": "bool"
        }
      ],
      "name": "VendorVerified",
      "type": "event"
    },
    {
      "inputs": [],
      "name": "admin",
      "outputs": [
        {
          "internalType": "address",
          "name": "",
          "type": "address"
        }
      ],
      "stateMutability": "view",
      "type": "function"
    },
    {
      "inputs": [],
      "name": "getAllVendors",
      "outputs": [
        {
          "components": [
            {
              "internalType": "address",
              "name": "vendorAddress",
              "type": "address"
            },
            {
              "internalType": "string",
              "name": "metadataHash",
              "type": "string"
            },
            {
              "internalType": "string",
              "name": "cancellationPolicyHash",
              "type": "string"
            },
            {
              "internalType": "uint256",
              "name": "reputationScore",
              "type": "uint256"
            },
            {
              "internalType": "bool",
              "name": "isVerified",
              "type": "bool"
            },
            {
              "internalType": "bool",
              "name": "exists",
              "type": "bool"
            }
          ],
          "internalType": "struct SimpleVendorRegistry.Vendor[]",
          "name": "",
          "type": "tuple[]"
        }
      ],
      "stateMutability": "view",
      "type": "function"
    },
    {
      "inputs": [
        {
          "internalType": "address",
          "name": "_vendor",
          "type": "address"
        }
      ],
      "name": "getVendor",
      "outputs": [
        {
          "components": [
            {
              "internalType": "address",
              "name": "vendorAddress",
              "type": "address"
            },
            {
              "internalType": "string",
              "name": "metadataHash",
              "type": "string"
            },
            {
              "internalType": "string",
              "name": "cancellationPolicyHash",
              "type": "string"
            },
            {
              "internalType": "uint256",
              "name": "reputationScore",
              "type": "uint256"
            },
            {
              "internalType": "bool",
              "name": "isVerified",
              "type": "bool"
            },
            {
              "internalType": "bool",
              "name": "exists",
              "type": "bool"
            }
          ],
          "internalType": "struct SimpleVendorRegistry.Vendor",
          "name": "",
          "type": "tuple"
        }
      ],
      "stateMutability": "view",
      "type": "function"
    },
    {
      "inputs": [
        {
          "internalType": "uint256",
          "name": "_vendorId",
          "type": "uint256"
        }
      ],
      "name": "getVendorById",
      "outputs": [
        {
          "components": [
            {
              "internalType": "address",
              "name": "vendorAddress",
              "type": "address"
            },
            {
              "internalType": "string",
              "name": "metadataHash",
              "type": "string"
            },
            {
              "internalType": "string",
              "name": "cancellationPolicyHash",
              "type": "string"
            },
            {
              "internalType": "uint256",
              "name": "reputationScore",
              "type": "uint256"
            },
            {
              "internalType": "bool",
              "name": "isVerified",
              "type": "bool"
            },
            {
              "internalType": "bool",
              "name": "exists",
              "type": "bool"
            }
          ],
          "internalType": "struct SimpleVendorRegistry.Vendor",
          "name": "",
          "type": "tuple"
        }
      ],
      "stateMutability": "view",
      "type": "function"
    },
    {
      "inputs": [],
      "name": "nextVendorId",
      "outputs": [
        {
          "internalType": "uint256",
          "name": "",
          "type": "uint256"
        }
      ],
      "stateMutability": "view",
      "type": "function"
    },
    {
      "inputs": [
        {
          "internalType": "string",
          "name": "_metadataHash",
          "type": "string"
        },
        {
          "internalType": "string",
          "name": "_cancellationPolicyHash",
          "type": "string"
        }
      ],
      "name": "registerVendor",
      "outputs": [],
      "stateMutability": "nonpayable",
      "type": "function"
    },
    {
      "inputs": [],
      "name": "totalVendors",
      "outputs": [
        {
          "internalType": "uint256",
          "name": "",
          "type": "uint256"
        }
      ],
      "stateMutability": "view",
      "type": "function"
    },
    {
      "inputs": [
        {
          "internalType": "address",
          "name": "_vendor",
          "type": "address"
        },
        {
          "internalType": "uint256",
          "name": "_newScore",
          "type": "uint256"
        }
      ],
      "name": "updateReputation",
      "outputs": [],
      "stateMutability": "nonpayable",
      "type": "function"
    },
    {
      "inputs": [
        {
          "internalType": "uint256",
          "name": "",
          "type": "uint256"
        }
      ],
      "name": "vendorIds",
      "outputs": [
        {
          "internalType": "address",
          "name": "",
          "type": "address"
        }
      ],
      "stateMutability": "view",
      "type": "function"
    },
    {
      "inputs": [
        {
          "internalType": "address",
          "name": "",
          "type": "address"
        }
      ],
      "name": "vendors",
      "outputs": [
        {
          "internalType": "address",
          "name": "vendorAddress",
          "type": "address"
        },
        {
          "internalType": "string",
          "name": "metadataHash",
          "type": "string"
        },
        {
          "internalType": "string",
          "name": "cancellationPolicyHash",
          "type": "string"
        },
        {
          "internalType": "uint256",
          "name": "reputationScore",
          "type": "uint256"
        },
        {
          "internalType": "bool",
          "name": "isVerified",
          "type": "bool"
        },
        {
          "internalType": "bool",
          "name": "exists",
          "type": "bool"
        }
      ],
      "stateMutability": "view",
      "type": "function"
    },
    {
      "inputs": [
        {
          "internalType": "address",
          "name": "_vendor",
          "type": "address"
        },
        {
          "internalType": "bool",
          "name": "_verified",
          "type": "bool"
        }
      ],
      "name": "verifyVendor",
      "outputs": [],
      "stateMutability": "nonpayable",
      "type": "function"
    }
  ],
  "bytecode": "0x60806040526001600255600060045534801561001a57600080fd5b50600380546001600160a01b0319163317905561113a8061003c6000396000f3fe608060405234801561001057600080fd5b50600436106100a95760003560e01c80635e0b421e116100715780635e0b421e1461013b5780637251872e1461015057806374e8807d1461019157806398faad55146101a4578063f5c91a08146101ad578063f851a440146101c057600080fd5b80630bc0f7d3146100ae5780631060885b146100d757806327e30c36146100ee5780632aa9516e146101135780632cc3610a14610128575b600080fd5b6100c16100bc366004610bc9565b6101d3565b6040516100ce9190610ca0565b60405180910390f35b6100e060025481565b6040519081526020016100ce565b6101016100fc366004610bc9565b6103a9565b6040516100ce96959493929190610cb3565b610126610121366004610d0a565b6104ff565b005b6100c1610136366004610d46565b6105ca565b61014361066e565b6040516100ce9190610d5f565b61017961015e366004610d46565b6001602052600090815260409020546001600160a01b031681565b6040516001600160a01b0390911681526020016100ce565b61012661019f366004610e64565b6108a9565b6100e060045481565b6101266101bb366004610ec8565b610a57565b600354610179906001600160a01b031681565b6101db610b6a565b6001600160a01b038216600090815260208190526040902060040154610100900460ff166102245760405162461bcd60e51b815260040161021b90610ef2565b60405180910390fd5b6001600160a01b0380831660009081526020818152604091829020825160c08101909352805490931682526001830180549293929184019161026590610f1c565b80601f016020809104026020016040519081016040528092919081815260200182805461029190610f1c565b80156102de5780601f106102b3576101008083540402835291602001916102de565b820191906000526020600020905b8154815290600101906020018083116102c157829003601f168201915b505050505081526020016002820180546102f790610f1c565b80601f016020809104026020016040519081016040528092919081815260200182805461032390610f1c565b80156103705780601f1061034557610100808354040283529160200191610370565b820191906000526020600020905b81548152906001019060200180831161035357829003601f168201915b50505091835250506003820154602082015260049091015460ff8082161515604084015261010090910416151560609091015292915050565b600060208190529081526040902080546001820180546001600160a01b0390921692916103d590610f1c565b80601f016020809104026020016040519081016040528092919081815260200182805461040190610f1c565b801561044e5780601f106104235761010080835404028352916020019161044e565b820191906000526020600020905b81548152906001019060200180831161043157829003601f168201915b50505050509080600201805461046390610f1c565b80601f016020809104026020016040519081016040528092919081815260200182805461048f90610f1c565b80156104dc5780601f106104b1576101008083540402835291602001916104dc565b820191906000526020600020905b8154815290600101906020018083116104bf57829003601f168201915b50505050600383015460049093015491929160ff80821692506101009091041686565b6003546001600160a01b031633146105295760405162461bcd60e51b815260040161021b90610f56565b6001600160a01b038216600090815260208190526040902060040154610100900460ff166105695760405162461bcd60e51b815260040161021b90610ef2565b6001600160a01b03821660008181526020818152604091829020600401805460ff191685151590811790915591519182527fb4e53a91944ae99dc42da152c24acc1038232903f36da2286793689f1f705b8c91015b60405180910390a25050565b6105d2610b6a565b6000821180156105e3575060025482105b6106235760405162461bcd60e51b8152602060048201526011602482015270125b9d985b1a59081d995b991bdc881251607a1b604482015260640161021b565b6000828152600160208181526040808420546001600160a01b03908116855284835293819020815160c081019092528054909416815291830180549293929184019161026590610f1c565b6060600060045467ffffffffffffffff81111561068d5761068d610dc1565b6040519080825280602002602001820160405280156106c657816020015b6106b3610b6a565b8152602001906001900390816106ab5790505b509050600060015b6002548110156108a1576000818152600160208181526040808420546001600160a01b03908116855284835293819020815160c081019092528054909416815291830180549293929184019161072390610f1c565b80601f016020809104026020016040519081016040528092919081815260200182805461074f90610f1c565b801561079c5780601f106107715761010080835404028352916020019161079c565b820191906000526020600020905b81548152906001019060200180831161077f57829003601f168201915b505050505081526020016002820180546107b590610f1c565b80601f01602080910402602001604051908101604052809291908181526020018280546107e190610f1c565b801561082e5780601f106108035761010080835404028352916020019161082e565b820191906000526020600020905b81548152906001019060200180831161081157829003601f168201915b50505091835250506003820154602082015260049091015460ff80821615156040840152610100909104161515606090910152835184908490811061087557610875610f97565b6020026020010181905250818061088b90610fc3565b925050808061089990610fc3565b9150506106ce565b509092915050565b33600090815260208190526040902060040154610100900460ff16156109115760405162461bcd60e51b815260206004820152601960248201527f56656e646f7220616c7265616479207265676973746572656400000000000000604482015260640161021b565b6040805160c08101825233808252602080830186815283850186905260326060850152600060808501819052600160a0860181905293815291829052939020825181546001600160a01b0319166001600160a01b0390911617815592519192919082019061097f908261102b565b5060408201516002820190610994908261102b565b506060820151600382015560808201516004909101805460a09093015115156101000261ff00199215159290921661ffff199093169290921717905560028054600090815260016020526040812080546001600160a01b03191633179055815491906109ff83610fc3565b909155505060048054906000610a1483610fc3565b91905055506001600254610a2891906110eb565b60405133907f46e79b667a082b3610a126e118bbe51867e23a1e59241106c4c721b2a3beb37b90600090a35050565b6003546001600160a01b03163314610a815760405162461bcd60e51b815260040161021b90610f56565b6001600160a01b038216600090815260208190526040902060040154610100900460ff16610ac15760405162461bcd60e51b815260040161021b90610ef2565b6064811115610b1d5760405162461bcd60e51b815260206004820152602260248201527f52657075746174696f6e2073636f72652063616e6e6f74206578636565642031604482015261030360f41b606482015260840161021b565b6001600160a01b0382166000818152602081815260409182902060030184905590518381527ffc577563f1b9a0461e24abef1e1fcc0d33d3d881f20b5df6dda59de4aae2c82191016105be565b6040518060c0016040528060006001600160a01b031681526020016060815260200160608152602001600081526020016000151581526020016000151581525090565b80356001600160a01b0381168114610bc457600080fd5b919050565b600060208284031215610bdb57600080fd5b610be482610bad565b9392505050565b6000815180845260005b81811015610c1157602081850181015186830182015201610bf5565b506000602082860101526020601f19601f83011685010191505092915050565b60018060a01b0381511682526000602082015160c06020850152610c5860c0850182610beb565b905060408301518482036040860152610c718282610beb565b9150506060830151606085015260808301511515608085015260a0830151151560a08501528091505092915050565b602081526000610be46020830184610c31565b6001600160a01b038716815260c060208201819052600090610cd790830188610beb565b8281036040840152610ce98188610beb565b606084019690965250509115156080830152151560a0909101529392505050565b60008060408385031215610d1d57600080fd5b610d2683610bad565b915060208301358015158114610d3b57600080fd5b809150509250929050565b600060208284031215610d5857600080fd5b5035919050565b6000602080830181845280855180835260408601915060408160051b870101925083870160005b82811015610db457603f19888603018452610da2858351610c31565b94509285019290850190600101610d86565b5092979650505050505050565b634e487b7160e01b600052604160045260246000fd5b600082601f830112610de857600080fd5b813567ffffffffffffffff80821115610e0357610e03610dc1565b604051601f8301601f19908116603f01168101908282118183101715610e2b57610e2b610dc1565b81604052838152866020858801011115610e4457600080fd5b836020870160208301376000602085830101528094505050505092915050565b60008060408385031215610e7757600080fd5b823567ffffffffffffffff80821115610e8f57600080fd5b610e9b86838701610dd7565b93506020850135915080821115610eb157600080fd5b50610ebe85828601610dd7565b9150509250929050565b60008060408385031215610edb57600080fd5b610ee483610bad565b946020939093013593505050565b60208082526010908201526f15995b991bdc881b9bdd08199bdd5b9960821b604082015260600190565b600181811c90821680610f3057607f821691505b602082108103610f5057634e487b7160e01b600052602260045260246000fd5b50919050565b60208082526021908201527f4f6e6c792061646d696e2063616e2063616c6c20746869732066756e6374696f6040820152603760f91b606082015260800190565b634e487b7160e01b600052603260045260246000fd5b634e487b7160e01b600052601160045260246000fd5b600060018201610fd557610fd5610fad565b5060010190565b601f82111561102657600081815260208120601f850160051c810160208610156110035750805b601f850160051c820191505b818110156110225782815560010161100f565b5050505b505050565b815167ffffffffffffffff81111561104557611045610dc1565b611059816110538454610f1c565b84610fdc565b602080601f83116001811461108e57600084156110765750858301515b600019600386901b1c1916600185901b178555611022565b600085815260208120601f198616915b828110156110bd5788860151825594840194600190910190840161109e565b50858210156110db5787850151600019600388901b60f8161c191681555b5050505050600190811b01905550565b818103818111156110fe576110fe610fad565b9291505056fea2646970667358221220e6fe3fcc5157bc0a70ab116bb5dbbd4b41fce5c6e1a2f5336cd00a7c8885a5e064736f6c63430008130033",
  "linkReferences": {},
  "deployedLinkReferences": {}
}